:020000040800F2
:1000000000040020C1010008810E0008810E0008D4
:10001000810E0008810E0008810E0008810E000884
:10002000810E0008810E0008810E0008F1160008FC
:10003000810E0008810E0008810E0008B12C000816
:10004000810E0008E12E0008A12F0008D12F000822
:10005000810E0008810E0008012D0008312D0008D6
:10006000612D0008912D0008C12D0008C12800084D
:10007000F1280008212900085129000881290008D9
:10008000B1290008E1290008D14F0008810E0008BD
:10009000810E0008810E0008810E0008F12D000875
:1000A000810E0008810E0008810E0008810E0008F4
:1000B000810E0008810E0008810E000881320008C0
:1000C00081330008810E0008810E0008810E0008AF
:1000D000810E0008810E0008810E0008810E0008C4
:1000E000612E0008112F0008412F0008810E000822
:1000F000810E0008810E0008810E0008112A0008F8
:10010000810E0008810E0008810E0008810E000893
:10011000810E0008810E0008810E0008810E000883
:10012000412A0008712A0008A12A0008D12A0008E3
:10013000012B0008810E0008810E0008810E0008C6
:10014000810E0008810E0008810E0008413D000864
:10015000312B0008612B0008912B0008810E00084C
:10016000810E0008810E0008810E0008810E000833
:10017000712F0008810E0008810E0008810E000812
:10018000810E0008810E0008810E0008810E000813
:10019000810E0008810E0008810E0008810E000803
:1001A000810E0008810E0008810E0008810E0008F3
:1001B000810E0008810E0008810E0008810E0008E3
:1001C00072B6344880F3098840F20000CCF2000097
:1001D0004EF63471CEF200010860BFF34F8FBFF3CB
:1001E0006F8F40F20000C0F2F0004EF68851CEF260
:1001F00000010860BFF34F8FBFF36F8F4FF0000017
:10020000E1EE100A4EF63C71CEF2000108600620C5
:1002100080F31488BFF36F8F00F0E2FD04F020F844
:100220004FF055301C491D4A91423CBF41F8040B28
:10023000FAE71B49174A91423CBF41F8040BFAE721
:100240001849194A194B9A423EBF51F8040B42F81B
:10025000040BF8E700201649164A91423CBF41F8CA
:10026000040BFAE700F0D4FD00F0C2FD124C134D70
:10027000AC4203DA54F8041B8847F9E704F0C8FAE3
:100280000F4C104DAC4203DA54F8041B8847F9E7D1
:1002900000F0B6BD0008002000000020000400208F
:1002A00000040020888A0008000800203C0C002080
:1002B000400C0020C8240020C0010008C001000834
:1002C000C0010008C001000800000000000000009C
:1002D0002DE9F04F2DED108AC1F80CD0C3689D4672
:1002E000BDEC108ABDE8F08F002383F31188284607
:1002F000A047002001F0C4F800F0F2FF00DFFEE7A5
:1003000081F0004102E000BF83F0004330B54FEAC6
:1003100041044FEA430594EA050F08BF90EA020F33
:100320001FBF54EA000C55EA020C7FEA645C7FEAC6
:10033000655C00F0E2804FEA5454D4EB5555B8BFE9
:100340006D420CDD2C4480EA020281EA030382EA5A
:10035000000083EA010180EA020281EA0303362DEC
:1003600088BF30BD11F0004F4FEA01314FF4801CBF
:100370004CEA113102D0404261EB410113F0004FD1
:100380004FEA03334CEA133302D0524263EB430388
:1003900094EA050F00F0A780A4F10104D5F1200E26
:1003A0000DDB02FA0EFC22FA05F2801841F1000181
:1003B00003FA0EF2801843FA05F359410EE0A5F155
:1003C00020050EF1200E012A03FA0EFC28BF4CF086
:1003D000020C43FA05F3C01851EBE37101F000453C
:1003E00007D54FF0000EDCF1000C7EEB00006EEB49
:1003F0000101B1F5801F1BD3B1F5001F0CD34908D3
:100400005FEA30004FEA3C0C04F101044FEA445229
:1004100012F5800F80F09A80BCF1004F08BF5FEAB0
:10042000500C50F1000041EB045141EA050130BD90
:100430005FEA4C0C404141EB010111F4801FA4F133
:100440000104E9D191F0000F04BF01460020B1FA88
:1004500081F308BF2033A3F10B03B3F120020CDAC0
:100460000C3208DD02F1140CC2F10C0201FA0CF09E
:1004700021FA02F10CE002F11402D8BFC2F1200C03
:1004800001FA02F120FA0CFCDCBF41EA0C019040B9
:10049000E41AA2BF01EB0451294330BD6FEA040402
:1004A0001F3C1CDA0C340EDC04F11404C4F12002ED
:1004B00020FA04F001FA02F340EA030021FA04F3FF
:1004C00045EA030130BDC4F10C04C4F1200220FA56
:1004D00002F001FA04F340EA0300294630BD21FA94
:1004E00004F0294630BD94F0000F83F4801306BF5A
:1004F00081F480110134013D4EE77FEA645C18BF4E
:100500007FEA655C29D094EA050F08BF90EA020FE4
:1005100005D054EA000C04BF1946104630BD91EADC
:10052000030F1EBF0021002030BD5FEA545C05D1DF
:100530004000494128BF41F0004130BD14F580041E
:100540003CBF01F5801130BD01F0004545F0FE4192
:1005500041F470014FF0000030BD7FEA645C1ABFC7
:10056000194610467FEA655C1CBF0B46024650EAFE
:10057000013406BF52EA033591EA030F41F400212A
:1005800030BD00BF90F0000F04BF0021704730B5B0
:100590004FF4806404F132044FF000054FF0000185
:1005A00050E700BF90F0000F04BF0021704730B546
:1005B0004FF4806404F1320410F0004548BF40421B
:1005C0004FF000013EE700BF42004FEAE2014FEA70
:1005D00031014FEA02701FBF12F07F4393F07F4F4B
:1005E00081F06051704792F0000F14BF93F07F4F7D
:1005F000704730B54FF4607401F0004521F00041C0
:1006000020E700BF50EA010208BF704730B54FF045
:1006100000050AE050EA010208BF704730B511F04A
:10062000004502D5404261EB41014FF4806404F182
:1006300032045FEA915C3FF4DCAE4FF003025FEA04
:10064000DC0C18BF03325FEADC0C18BF033202EB8C
:10065000DC02C2F1200300FA03FC20FA02F001FAE6
:1006600003FE40EA0E0021FA02F11444C1E600BF85
:1006700070B54FF0FF0C4CF4E06C1CEA11541DBF38
:100680001CEA135594EA0C0F95EA0C0F00F0DEF803
:100690002C4481EA030621EA4C5123EA4C5350EAE8
:1006A000013518BF52EA033541F4801143F4801339
:1006B00038D0A0FB02CE4FF00005E1FB02E506F0CA
:1006C0000042E0FB03E54FF00006E1FB03569CF01F
:1006D000000F18BF4EF0010EA4F1FF04B6F5007F25
:1006E00064F5407404D25FEA4E0E6D4146EB060697
:1006F00042EAC62141EA55514FEAC52040EA5E5020
:100700004FEACE2EB4F1FD0C88BFBCF5E06F1ED8C9
:10071000BEF1004F08BF5FEA500E50F1000041EB00
:10072000045170BD06F0004646EA010140EA0200AD
:1007300081EA0301B4EB5C04C2BFD4EB0C0541EACF
:10074000045170BD41F480114FF0000E013C00F3E4
:10075000AB8014F1360FDEBF002001F0004170BD08
:10076000C4F10004203C35DA0C341BDC04F1140421
:10077000C4F1200500FA05F320FA04F001FA05F2AD
:1007800040EA020001F0004221F0004110EBD3707A
:1007900021FA04F642EB06015EEA430E08BF20EAA6
:1007A000D37070BDC4F10C04C4F1200500FA04F349
:1007B00020FA05F001FA04F240EA020001F00041DB
:1007C00010EBD37041F100015EEA430E08BF20EA4E
:1007D000D37070BDC4F1200500FA05F24EEA020E96
:1007E00020FA04F301FA05F243EA020321FA04F0C5
:1007F00001F0004121FA04F220EA020000EBD3707C
:100800005EEA430E08BF20EAD37070BD94F0000F7B
:100810000FD101F00046400041EB010111F4801FAF
:1008200008BF013CF7D041EA060195F0000F18BF60
:10083000704703F00046520043EB030313F4801F9C
:1008400008BF013DF7D043EA0603704794EA0C0F56
:100850000CEA135518BF95EA0C0F0CD050EA41066C
:1008600018BF52EA4306D1D181EA030101F00041E9
:100870004FF0000070BD50EA410606BF1046194611
:1008800052EA430619D094EA0C0F02D150EA01361D
:1008900013D195EA0C0F05D152EA03361CBF10465E
:1008A00019460AD181EA030101F0004141F0FE41FD
:1008B00041F470014FF0000070BD41F0FE4141F481
:1008C000780170BD70B54FF0FF0C4CF4E06C1CEA81
:1008D00011541DBF1CEA135594EA0C0F95EA0C0F36
:1008E00000F0A7F8A4EB050481EA030E52EA0335F1
:1008F0004FEA013100F088804FEA03334FF0805512
:1009000045EA131343EA12634FEA022245EA11153E
:1009100045EA10654FEA00260EF000419D4208BFEF
:10092000964244F1FD0404F5407402D25B084FEA9C
:100930003202B61A65EB03055B084FEA32024FF448
:1009400080104FF4002CB6EB020E75EB030E22BFA5
:10095000B61A754640EA0C005B084FEA3202B6EB65
:10096000020E75EB030E22BFB61A754640EA5C0014
:100970005B084FEA3202B6EB020E75EB030E22BFA4
:10098000B61A754640EA9C005B084FEA3202B6EBA5
:10099000020E75EB030E22BFB61A754640EADC0064
:1009A00055EA060E18D04FEA051545EA16754FEAC6
:1009B00006164FEAC30343EA52734FEAC2025FEAE4
:1009C0001C1CC0D111F4801F0BD141EA00014FF073
:1009D00000004FF0004CB6E711F4801F04BF014344
:1009E0000020B4F1FD0C88BFBCF5E06F3FF6AFAE60
:1009F000B5EB030C04BFB6EB020C5FEA500C50F1F0
:100A0000000041EB045170BD0EF0004E4EEA113172
:100A100014EB5C04C2BFD4EB0C0541EA045170BD79
:100A200041F480114FF0000E013C90E645EA060EBD
:100A30008DE60CEA135594EA0C0F08BF95EA0C0FEB
:100A40003FF43BAF94EA0C0F0AD150EA01347FF433
:100A500034AF95EA0C0F7FF425AF104619462CE70A
:100A600095EA0C0F06D152EA03353FF4FDAE10466D
:100A7000194622E750EA410618BF52EA43067FF4BE
:100A8000C5AE50EA41047FF40DAF52EA43057FF44E
:100A9000EBAE12E7000000000000000000000000C4
:100AA0004FF0FF3C06E000BF4FF0010C02E000BF3A
:100AB0004FF0010C4DF804CD4FEA410C7FEA6C5C1D
:100AC0004FEA430C18BF7FEA6C5C1BD001B050EAC0
:100AD000410C0CBF52EA430C91EA030F02BF90EAAB
:100AE000020F0020704710F1000F91EA030F58BF6A
:100AF000994208BF90422CBFD8176FEAE37040F0CC
:100B0000010070474FEA410C7FEA6C5C02D150EA69
:100B1000013C07D14FEA430C7FEA6C5CD6D152EA24
:100B2000033CD3D05DF8040B704700BF84461046E9
:100B300062468C461946634600E000BF01B5FFF7E8
:100B4000B7FF002848BF10F1000F01BD4DF808EDB8
:100B5000FFF7F4FF0CBF012000205DF808FB00BF89
:100B60004DF808EDFFF7EAFF34BF012000205DF8E3
:100B700008FB00BF4DF808EDFFF7E0FF94BF012030
:100B800000205DF808FB00BF4DF808EDFFF7CEFF31
:100B900094BF012000205DF808FB00BF4DF808ED70
:100BA000FFF7C4FF34BF012000205DF808FB00BF41
:100BB0004FEA410212F5001215D211D56FF4787385
:100BC000B3EB625212D94FEAC12343F0004343EA28
:100BD000505311F0004F23FA02F018BF4042704703
:100BE0004FF00000704750EA013005D111F000408D
:100BF00008BF6FF0004070474FF00000704700BF23
:100C00004FEA4102B2F1E04324BFB3F5001CDCF12E
:100C1000FE5C0DD901F0004C4FEAC0024CEA507066
:100C2000B2F1004F40EB830008BF20F00100704795
:100C300011F0804F21D113F13872BCBF01F0004098
:100C4000704741F480114FEA5252C2F11802C2F1CA
:100C5000200C10FA0CF320FA02F018BF40F001004B
:100C60004FEAC1234FEAD32303FA0CFC40EA0C00FD
:100C700023FA02F34FEA4303CCE77FEA625307D13A
:100C800050EA01331EBF4FF0FE4040F44000704771
:100C900001F0004040F0FE4040F40000704700BF0B
:100CA000844641EA000313F003036DD1403A41D377
:100CB00051F8043B40F8043B51F8043B40F8043B36
:100CC00051F8043B40F8043B51F8043B40F8043B26
:100CD00051F8043B40F8043B51F8043B40F8043B16
:100CE00051F8043B40F8043B51F8043B40F8043B06
:100CF00051F8043B40F8043B51F8043B40F8043BF6
:100D000051F8043B40F8043B51F8043B40F8043BE5
:100D100051F8043B40F8043B51F8043B40F8043BD5
:100D200051F8043B40F8043B51F8043B40F8043BC5
:100D3000403ABDD2303211D351F8043B40F8043B65
:100D400051F8043B40F8043B51F8043B40F8043BA5
:100D500051F8043B40F8043B103AEDD20C3205D375
:100D600051F8043B40F8043B043AF9D2043208D06D
:100D7000D2071CBF11F8013B00F8013B01D30B88DF
:100D800003806046704700BF082A13D38B078DD0BD
:100D900010F003038AD0C3F10403D21ADB071CBF8F
:100DA00011F8013B00F8013B80D331F8023B20F8F9
:100DB000023B7BE7043AD9D3013A11F8013B00F832
:100DC000013BF9D20B7803704B7843708B788370BA
:100DD00060467047000000000000000000000000B6
:100DE000704700BF0000000000000000000000008D
:100DF000704700BF0000000000000000000000007D
:100E0000FEE700BF0000000000000000000000003E
:100E1000F0B5134F134D144C144B154907F1700ED8
:100E200000269C4211D904391A4651F8040F42F8A1
:100E3000040B9442F9D8DA43144424F00304043434
:100E400023449D4203D943F8046B9D42FBD8774568
:100E500005D039697B69BC69FD691037E1E7F0BDF0
:100E600000830008C8240020C8240020C8240020D3
:100E7000C48E000800000000000000000000000018
:100E8000FEE700BF000000000000000000000000BE
:100E9000FEE700BF000000000000000000000000AE
:100EA000204B214A2148F0B500249C60DF68204E89
:100EB000204D4FF6FF0139400A43DA60F26842F0F4
:100EC0008072F2600268202142F001021026026066
:100ED00083B0DE7783F8221000F002F900F080F88A
:100EE00000F066FB00F0BCFB00F0F2FB284640215E
:100EF00000F006FAA5F1300301229861027784F32D
:100F0000118862B69B690C49996105F15000009403
:100F10000A4B4FF4EC7100F04BFA094B836103B0BC
:100F2000F0BD00BF00ED00E00003FA05001000E096
:100F3000F0ED00E0700C002090830008910E000896
:100F40008083000800000000000000000000000096
:100F500072B6014BD862FEE7400C00200000000092
:100F6000F8B5134DAA69D37F0BB1013BD377116A52
:100F7000EB69104E01311162AA6AB34202F101021B
:100F8000AA6213D09C68013C9C607CB920271A6837
:100F9000D968DC605660EA6184F311881869884773
:100FA00087F31188EB699A68002AF0D0F8BD00BF7A
:100FB000400C00205C0C002000000000000000003D
:100FC000034A516853685B1A8342FBD3704700BFE2
:100FD000001000E000000000000000000000000021
:100FE000054B4FF0FF3003F11C020021586299625B
:100FF000DA611A62704700BF400C00200000000058
:1010000070B40D4EF469A5680361A942C26004D9A9
:101010002468491BA5688D42FAD363684360046065
:10102000186060608160A3684FF0FF32591AA160B8
:10103000726270BC704700BF400C002000000000CE
:1010400003688268416830B49D68064C2A449A60FF
:101050000B60056800224FF0FF336960C260636275
:1010600030BC7047400C0020000000000000000071
:1010700010B4202383F31188037F072B0ED8DFE8F9
:1010800003F0270D0D2308040D08426A936801330D
:10109000936090E80C001A60026853604FF0FF34D0
:1010A000002281680D4B446202771B689A688A426D
:1010B000FBD25A684260036000211060586081F3DF
:1010C00011885DF8044B7047436A00221A60E5E717
:1010D000002383F311885DF8044B7047400C002017
:1010E000034B00221B605B601B615B619A60704771
:1010F000400C002000000000000000000000000084
:1011000000228168084B10B4044602771B689A6875
:101110008A42FBD25A6862602360204614605C6099
:101120005DF8044B704700BF400C00200000000039
:10113000084B99691A6810B408770420C8771068BA
:10114000186001244360147710465DF8044B9A61DF
:10115000FFF7BEB8400C00200000000000000000B7
:1011600030B54B1C87B012D00C4C0D4AA369054614
:1011700001A8FFF745FF2846FFF7DAFF049B13B1EC
:1011800001A8FFF75DFFA369586A07B030BD034CA3
:10119000FFF7CEFFA369586A07B030BD400C0020AE
:1011A00071100008000000000000000000000000B6
:1011B000144B70B404469D694162A868A1688142DD
:1011C0004FF000020BD822771B689A689142FBD936
:1011D0005A686260236014605C6070BC70472A7754
:1011E0001A46126891688842FBD9506868600126E7
:1011F0002A60056055602677294620469C6170BCB0
:10120000FFF766B8400C002000000000000000005E
:10121000084B9A691B68D17F9B68906821B983420B
:1012200034BF002001207047834294BF002001207A
:10123000704700BF400C00200000000000000000CC
:101240000E4A1068036870B4012194695A6004263C
:1012500001770025A16813609061E677257700E0AB
:101260001B689A688A42FBD25A68626023602146F2
:1012700014605C6070BCFFF72BB800BF400C00200E
:101280000D4A1068036830B4012194695A60002542
:101290000177A16813609061257700E01B689A6868
:1012A0008A42FBD85A6862602360214614605C6001
:1012B00030BCFFF70DB800BF400C0020000000005C
:1012C000044B1A689B6992689B689A4200D87047E1
:1012D000FFF7D6BF400C0020000000000000000017
:1012E000034B9B69DB7F0BB1FFF7CABFFFF7A8BFBA
:1012F000400C002000000000000000000000000082
:10130000F0B50F4C01646569816002260022067702
:1013100000F12C014FF0040E012700F12806456171
:10132000046180F81FE087774277C26382630262BC
:101330008261286160618662C1620163F0BD00BFA5
:10134000400C002000000000000000000000000031
:101350006439F0B50144124E124D7769C1600B64D7
:10136000059B4B6402230D664FF0040E82600264FD
:10137000037700F12C020023012500F1280106610A
:10138000476180F81FE085774377C3638363036217
:101390008361386181627061C2620263F0BD00BF27
:1013A000400C0020E90200080000000000000000DE
:1013B000F8B51D460446202383F31188643901449F
:1013C000134E144B7769C1600D64069D4D640B6626
:1013D00002250423826002640577C377002500F1AB
:1013E0002C0300F1280201218177066147614577CE
:1013F000C563856305628561294638618262C3627F
:1014000003637061FFF7D4FE85F311882046F8BDB1
:10141000400C0020E902000800000000000000006D
:1014200008B50146202383F311880820FFF798FEB2
:10143000002383F3118808BD0000000000000000B5
:1014400038B50E4B9C69A36A606204F128059D4281
:1014500007D01A68A2621846FFF752FEA36AAB4291
:10146000F7D1637F9B0704D1636922691A612269FE
:1014700053610F20BDE83840FFF75ABE400C0020F2
:10148000202383F31188FFF7DBBF00BF00000000BB
:1014900010B5054CA369036002465A620320FFF7AA
:1014A00047FEA369586A10BD400C002000000000F0
:1014B00003682BB10022026018465962FFF720BE74
:1014C000704700BF000000000000000000000000A6
:1014D00069B1084B10B4024644689B69042083E854
:1014E0001400236053605DF8044BFFF739BE4FF0E2
:1014F000FF307047400C002000000000000000009A
:10150000026890420AD010B4146804600346636015
:10151000516210465DF8044BFFF7F2BD704700BF03
:1015200038B5036898420BD004460D461A6822600D
:10153000184654605D62FFF7E3FD23689C42F5D1D5
:1015400038BD00BF000000000000000000000000E7
:10155000014B5B6883607047001000E000000000F2
:101560000E4B0F495A688368F0B48F6F4168C668A4
:10157000D0E90445D31ADB1BE4180268836045F107
:1015800000058B4206F1010688BF43609342C660A6
:10159000C0E9044538BF0360F0BC7047001000E0AC
:1015A000400C0020000000000000000000000000CF
:1015B000D0B50C4C86B000234FF0FF3268460026B1
:1015C0000027A3670193029303930092CDE9046778
:1015D000FFF7BEFF6846FFF7C3FF029BA36706B095
:1015E000D0BD00BF400C0020000000000000000043
:1015F0000023006040608360704700BF000000006F
:10160000836B027F19430A2A816309D00B2A00D019
:101610007047436A8B43FBD100234362FFF770BDE1
:10162000436A1942F8D17047000000000000000032
:1016300070B50468A0420FD006460D46E3682B4300
:10164000E36015B12269134203D0A1686068FFF717
:10165000D7FF2468A642F1D170BD00BF0000000092
:10166000054A064B0648074922F0070223F0070304
:1016700002600B60704700BFCF24002000000220F2
:101680009C0E0020980E00200000000000000000CA
:1016900010B4202383F31188094C0A4B226819687F
:1016A000C31D23F00703891A8B429DBF9B1823603B
:1016B00010460020002383F311885DF8044B704727
:1016C0009C0E0020980E002000000000000000008A
:1016D000044B054A1A6003F1100000229A60DA6098
:1016E000FFF786BFA00E0020911600080000000042
:1016F000064A536823F001035360EFF3098368330C
:1017000083F30988002383F31188704730EF00E0EA
:10171000202383F31188124B5B6813F4006302D11A
:1017200083F31188704710B5F1EE103AEFF3098496
:101730000C4B4FF08072DB6844F8083C44F84C2CAA
:10174000A4F1680383F30988FFF762FD18B1064B23
:1017500044F8503C10BD054B44F8503C10BD00BF50
:1017600000ED00E030EF00E0F9020008FC020008A4
:1017700008B501F005F8094801F042FC00F088FACC
:1017800000F096FA00F0BCFC00F0DAFC00F070FB10
:1017900002F06EFDBDE8084000F002B820850008A8
:1017A00001F096BA000000000000000000000000F8
:1017B000F0B40432002403FB0217049E059D476128
:1017C000C6620563846044628462006040600161B7
:1017D000C1608261C3610162F0BC7047000000001B
:1017E0000022016A0161C1608260426282626FF020
:1017F0000101FFF795BE00BF0000000000000000DF
:10180000C3680269934201D0181D70478268002A9C
:10181000FAD00020704700BF000000000000000068
:1018200030B4C46845692160836982682344AB424F
:10183000C36002F1010228BF036A826028BFC3604F
:10184000002130BCFFF75CBE00000000000000007B
:1018500038B504460D4603E0FFF73AFE00280BDBDF
:10186000A36829462046002BF6D023691A68043362
:101870001A44A2626362002038BD00BF000000006D
:1018800038B50446202383F31188456AEDB12B4611
:10189000A26A13F8015B6362934211D304F1100052
:1018A0000BC803448B42A268236124BF236A2361CF
:1018B000013AE36AA260002262620BB120469847B7
:1018C000002383F31188284638BDFFF7C1FF08B90C
:1018D000656ADCE785F3118838BD00BF00000000B1
:1018E0002DE9F04F044683B00D46164699464FF059
:1018F000200888F311883D4B616A9B6A4B444FF086
:10190000000A019309F1FF3300935746002942D0A2
:10191000A36ACAEB060B5B1A9B4528BF9B46BBF12B
:10192000400F48D901F140022B46D1F800C0D1F850
:1019300004E08868D1F80CB0C3F80CB010319142C3
:10194000C3F800C0C3F804E0986003F11003ECD1C1
:10195000636A403340350AF1400A6362A26A9A42E0
:1019600010D804F110010EC90B4493422361A06802
:1019700024BF236A2361E36A67620138A0600BB168
:101980002046984787F31188B24527D288F31188FB
:10199000616A0029BCD1009B033316D8134B019A0E
:1019A0009B6AD31A99451DD319462046FFF750FF6D
:1019B00088B9616AACE728465A46FFF771F9636A4D
:1019C0005B44DA445D446362C8E749462046FFF75A
:1019D0003FFF0028EDD0002383F31188504603B069
:1019E000BDE8F08F81F31188F8E700BF400C0020BC
:1019F000F0B40432002402FB0317049E059D4761E6
:101A0000C662056344628462006040608360016175
:101A1000C1608261C3610162F0BC704700000000D8
:101A2000016A016110B40022C4698460C16042622D
:101A300082626FF001015DF8044BFFF771BD00BFDA
:101A40000369C2689A4204D0184650F8043B0B6000
:101A500070478268002AF7D000207047000000001D
:101A600010B4836904694169826823448B4203612D
:101A700002F1010228BF036A826028BF03610021CE
:101A80005DF8044BFFF73CBD0000000000000000C3
:101A900038B504460D4603E0FFF71AFD00280BDBBE
:101AA000A36829462046002BF6D0E268A369111DE1
:101AB00013446162A362002038BD00BF0000000033
:101AC00070B520230E46044683F31188456AFDB1A4
:101AD0002E70636AA26A01339342636214D3A269CF
:101AE000E1686069043A0A60A369A2680B44834212
:101AF000E36024BF236AE360013AE36AA260002244
:101B000062620BB120469847002080F3118870BDB7
:101B10001146FFF7BDFF08B9656AD9E785F311885B
:101B200070BD00BF000000000000000000000000C9
:101B30002DE9F04F054683B017469A464FF020092D
:101B400089F311883D4B686A9A6A0AEB0203019394
:101B50000AF1FF334FF0000B00933B46D8460F4687
:101B60001E46002841D0AA6ACBEB0604121A944202
:101B700028BF1446402C47D9394607F140030F6867
:101B80004C688A68D1F80CE0C0F80CE0103199423A
:101B900007604460826000F11000F0D16A6A403250
:101BA0000F460BF1400B6A62A96A914214D8A969E9
:101BB000EC68686904392160AA69A968C5F82480BD
:101BC00022448242EA6024BF2A6AEA60EA6A013952
:101BD000A9600AB12846904788F31188B34526D2F8
:101BE00089F31188686A0028BDD1009B033315D89A
:101BF000124B996A019B591A8A451CD32846FFF754
:101C000047FF88B9686AAEE722463946FFF748F8C9
:101C10006A6A2244A34427446A62C5E751462846BB
:101C2000FFF736FF0028EDD0002282F311885846D6
:101C300003B0BDE8F08F80F31188F8E7400C002076
:101C4000C26803699A4201D00020704783680BB9CB
:101C500018467047436A002BFAD0043B9B1AF7D012
:101C600010B413608369446981681A44A24228BF92
:101C7000036AC26001F1FF3128BFC36000238160A5
:101C800043625DF8044B0120704700BF0000000074
:101C900001F02EB80000000000000000000000006D
:101CA0000122002302704360704700BF0000000063
:101CB00001F0D6BB000000000000000000000000A2
:101CC00001220023027043600C30FFF791BC00BF7B
:101CD00010B5046BD4F8842413681978042982B0F1
:101CE00001D002B010BD217A0229FAD111791A89E6
:101CF00001238B401342F4D101A904F14000FFF706
:101D00009FFE02460028ECD0D4F88404019B0179A0
:101D1000006800F075FAE4E7000000000000000031
:101D200010B5046BD4F8842413681978042900D002
:101D300010BD217A0229FBD151795A8901238B40A8
:101D40001342F5D104F10C00FFF75AFD0028EFD043
:101D5000D4F88434024659791868BDE810404FF42D
:101D6000807300F035BA00BF0000000000000000E2
:101D700010B4D0F8844424682478042C03D00020C4
:101D80005DF8044B70470C305DF8044BFFF7A8BDBD
:101D900010B4D0F8844424682478042C03D00020A4
:101DA0005DF8044B704740305DF8044BFFF7C0BE50
:101DB000D0F884341B681B78042B02D10C30FFF759
:101DC0005FBD6FF0010070470000000000000000E0
:101DD000D0F884341B681B78042B04D10C304FF0EE
:101DE000FF31FFF74DBD6FF00100704700000000AC
:101DF000D0F884341B681B78042B02D14030FFF7E5
:101E00005FBE6FF00100704700000000000000009E
:101E1000D0F884341B681B78042B04D140304FF079
:101E2000FF32FFF74DBE6FF0010070470000000069
:101E3000D0F884341B681B78042B01D00020704735
:101E40000C304FF0FF33FFF74BBD00BF0000000028
:101E5000D0F884341B681B78042B01D00020704715
:101E600040304FF0FF33FFF763BE00BF00000000BB
:101E7000704700BF000000000000000000000000EC
:101E800010B50346104A43F8042B82B001210F4AD3
:101E90000190044643600172022300F17401009234
:101EA0000C304FF48072FFF783FC094B00930194D0
:101EB00004F51F7104F1400002234FF48072FFF714
:101EC00097FD02B010BD00BFB0830008211D0008BF
:101ED000D11C00080000000000000000000000000D
:101EE0000B68202282F311880A7903EB8202906149
:101EF0004A79093243F822008A7912B103EB82034E
:101F0000986102230372C0F88414002383F31188BC
:101F1000704700BF0000000000000000000000004B
:101F200010B5022104460430FFF782FB04F10C00D7
:101F3000FFF756FC04F14000BDE81040FFF770BD0C
:101F400070B500F10C0504462846FFF749FC04F182
:101F50004000FFF765FD201D0121FFF769FB2846C2
:101F6000FFF74EFCD4F88434024659791868BDE86E
:101F700070404FF4807300F02BB900BF00000000E8
:101F800090F8443003F06003202B01D0002070470C
:101F900090F84530212B03D0222B09D0202BF5D1EE
:101FA000064B836307220023C2630364012070474A
:101FB00000238363C363036401207047000800208B
:101FC000D0F8842413681978042900D07047017A66
:101FD0000229FBD111791A8901238B401342F5D1D3
:101FE00030B500F1400583B004462846FFF728FECF
:101FF00008B903B030BD01A92846FFF721FDD4F888
:102000008444019B21790246206800F0F9F8F0E74A
:10201000F0B500EB810383B09C69ECB10E46054638
:10202000202383F3118800EB8107201D0821FFF78F
:10203000FFFAFB685B691B684034FBB9204601A9C5
:10204000FFF7FEFC50B1024631462846019B00F0E6
:10205000D7F8002383F3118803B0F0BDFB685A69F9
:102060001268002AF5D01B8A013B1340F1D131469A
:1020700005F14402284600F0C3F8EAE72046FFF7DE
:10208000EFFC204601A9FFF7DBFC0028DBD1E5E7E8
:10209000093138B550F8214024B3202383F3118847
:1020A00004216018FFF7C4FAD4F884241368527925
:1020B00003EB820304F10C05DB689B692846596831
:1020C000FFF7AEFB2846FFF79BFB40B1D4F8843402
:1020D0000246597918684FF4807300F079F80023AC
:1020E00083F3118838BD00BF00000000000000002D
:1020F000704700BF0000000000000000000000006A
:1021000001F0E6BF00000000000000000000000039
:10211000002301220270436083600C30FFF768BA2D
:1021200010B52023044683F31188416001F0F8FFC5
:1021300002232370002383F3118810BD00000000E8
:1021400001F0A6BA0000000000000000000000003E
:102150000023012202704360C36183620362C36291
:102160004362036303814381704700BF00000000A6
:1021700038B50446202383F3118800254160C560EB
:1021800005614561856101F09BFA0223237085F3A7
:10219000118838BD000000000000000000000000B1
:1021A00010B4536900EB8104E26023B100241C6089
:1021B0005C609C60DC60936923B100221A605A6005
:1021C0009A60DA605DF8044B01F082BB0000000009
:1021D000F0B500EB81044789D4F80CE0012404FA3F
:1021E00001F6DEF818403E4300274681A26084E8ED
:1021F0008800BDE8F04001F053BC00BF00000000C3
:10220000F0B500EB81040789D4F80CE0012404FA4E
:1022100001F6DEF814403E4300270681A26084E800
:102220008800BDE8F04001F0D3BC00BF0000000012
:1022300070B50223002504460370A0F84C5080F8C6
:102240004E5080F84F5005814581C560056145615C
:10225000856180F8345001F0CBFA63681B6823B1C4
:1022600029462046BDE87040184770BD00000000B8
:1022700042681368052101700BB1032118477047AC
:10228000426813680421017003B11847704700BF0A
:1022900070B50023044680F8343000F1440201F0A8
:1022A000EFFB63689B685BB32046984740B3E56BE0
:1022B00094F8443094F84B1094F84A2042EA0122F2
:1022C000AA423CBFE26315461A0600F18980002D40
:1022D00051D1052384F83430202383F31188E36837
:1022E00022895B69002542F00102228120469D601F
:1022F0001D605D60294601F06BFC85F3118870BD9F
:1023000094F8443013F060061A4611D0002120469C
:1023100001F05EFE0021204601F04AFE63681B6862
:1023200013B1052120469847062384F8343070BD48
:1023300094F8455003F07F0141EA0525B5F5407F4B
:1023400000F002812FD9B5F5C06F00F0E48060D9AC
:10235000B5F5106F00F0898040F60242954200F01A
:102360000581B5F5006FD1D104F14F020125266436
:10237000A263E5639EE7042384F83430202383F3CB
:102380001188E36862899B69E16BA66B42F00102E8
:1023900000256281204683E86200294601F080FB27
:1023A00085F3118870BD022D00F09E8040F292806E
:1023B000B5F5807F7FD0B5F5817FA7D194F8463001
:1023C000002BA3D194F8483013F00F012FD01E0634
:1023D000204600F1F28001F00BFE94F8442026E044
:1023E00065B3012384F83430202383F31188E36834
:1023F00022895B69E16BA66B42F001020025228114
:10240000204683E86200294601F0E2FB85F311884B
:1024100070BD40F202339D423AD0B5F5A06F7FF413
:1024200075AFB4F84430B3F5A06F00F0B48000236A
:10243000A363E363236413067FF54BAF032384F8A0
:102440003430202383F31188E36862899B69002577
:1024500042F00102628120469D601D605D60294658
:1024600001F01EFB85F3118870BD94F8463084F8A6
:102470004F30002B40F081800323237063681B687A
:10248000002BD4D002212046984794F84420CEE770
:1024900094F84630002B7FF439AF94F8483013F0AD
:1024A0000F01C4D01D06204600F18C8001F080FD94
:1024B00094F84420BBE794F84630012B7FF426AF14
:1024C000B4F84C30A66323F00203E6632664A4F854
:1024D0004C30B0E7002D46D1022004F14C022564B7
:1024E000A263E0630546E5E694F8481011F0800F1A
:1024F000204601F00F0143D101F0A2FA012843D098
:1025000002287FF403AF324BA363E06326640546E1
:1025100094F84430CEE694F84900616894F8483065
:102520004D6894F8462094F8471043EA002320466B
:10253000A84700283FF4EAAE43680568E563A36353
:10254000266494F84430B5E694F84630012B7FF4C5
:10255000DDAEB4F84C30A66343F00203E6632664B4
:10256000A4F84C3067E7012D7FF4D0AE194AA2637E
:1025700002250022E56322649CE6042323707DE7A4
:1025800001F06EFA0128BBD1134BA363E563266407
:1025900094F844308EE694F8463084F84E30204665
:1025A00001F086F963681B6813B101212046984742
:1025B000032394F84420237039E701F029FD94F8AF
:1025C000442034E701F004FD94F844202FE700BFD5
:1025D000E0830008D0830008F083000800000000BA
:1025E00038B590F834300446062B15D8DFE803F0F0
:1025F00004152504043C0400002101F0E9FC00213D
:10260000204601F0D5FC63681B6813B10521204604
:102610009847062384F8343038BD90F84B1090F872
:102620004A30C26B43EA0123934206D9C3681D8A2C
:10263000B2FBF5F305FB1325EDB1032384F8343029
:10264000202383F31188E36862899B69002542F0A7
:102650000102628120469D601D605D60294601F097
:102660001FFA85F3118838BD036C03B19847002326
:1026700084F8343038BD202383F31188C36802897D
:102680005B6942F00102028129469D601D605D6028
:1026900001F09EFA85F31188022384F8343038BDA6
:1026A00090F83420062A0CD838B50123934013F053
:1026B000670F044612D113F0080503D1DB061ED4C0
:1026C00038BD7047C3689B695B68002BF8D1036C09
:1026D00003B19847002384F8343038BD002101F05D
:1026E00077FC0021204601F063FC63681B6813B18E
:1026F000052120469847062384F8343038BD052349
:1027000080F83430202383F31188C36802895B6921
:1027100042F00102028129469D601D605D6001F06A
:1027200057FA85F3118838BD000000000000000052
:1027300043099B0010B403F1604300F1604404F5C9
:10274000614403F56143090100F01F00012202FA10
:1027500000F0C9B284F80013C3F8800118605DF876
:10276000044B704700000000000000000000000063
:1027700000F1604000F56D400901C9B20176704773
:10278000174B4FF0FF311A69002210B419611A611A
:10279000586959615A61186A124C60F08050186289
:1027A0001A62586A59625A62196C41F08051196470
:1027B000216841F480712160196F01F44071B1F515
:1027C000007F03D04FF4803119671A67054A5DF81E
:1027D000044B536823F40073536000F0F1B900BF59
:1027E00000380240007000400000000000000000BF
:1027F0002C492D4B4FF080504FF4404208641A6032
:102800000B6843F001030B600A68264B9007FBD569
:102810009A6822F003029A609A689A6019468B6857
:10282000204A13F00C03FAD1116801F0F90111608C
:102830009360136843F4803313601168194B890364
:10284000FBD55A6F42F001025A675A6F154990073B
:10285000FBD5164B4B600B68134A43F080730B603B
:1028600053685904FCD50F490A680E4B9201FBD5F9
:102870000F4A1049996040F2057111609A6842F060
:1028800002029A601A469368064903F00C03082B6B
:10289000F9D14B6C43F480434B644B6E43F480435B
:1028A0004B667047003802400070004008544007F3
:1028B000003C024000948838000000000000000046
:1028C00008B5074B074A196801F03D019960136884
:1028D0000BB150689847BDE80840FEF719BF00BF2C
:1028E00000600240C00E0020000000000000000058
:1028F000084B094819688268890901F03D0110B543
:102900008C019C600AB1C0689047BDE81040FEF79A
:10291000FFBE00BF00600240C00E002000000000AB
:10292000084B094819680269090C01F03D0110B50E
:102930000C049C600AB140699047BDE81040FEF766
:10294000E7BE00BF00600240C00E00200000000093
:10295000084B094819688269890D01F03D0110B5DD
:102960008C059C600AB1C0699047BDE81040FEF735
:10297000CFBE00BF00600240C00E0020000000007B
:1029800008B5074B07485968026A01F03D01D96054
:102990000AB1406A9047BDE80840FEF7B9BE00BFE3
:1029A00000600240C00E0020000000000000000097
:1029B000084B09485968826A890901F03D0110B540
:1029C0008C01DC600AB1C06A9047BDE81040FEF798
:1029D0009FBE00BF00600240C00E0020000000004B
:1029E000084B09485968026B090C01F03D0110B50C
:1029F0000C04DC600AB1406B9047BDE81040FEF764
:102A000087BE00BF00600240C00E00200000000032
:102A1000084B09485968826B890D01F03D0110B5DA
:102A20008C05DC600AB1C06B9047BDE81040FEF732
:102A30006FBE00BF00600240C00E0020000000001A
:102A400008B5074B07481968026C01F03D01996011
:102A50000AB1406C9047BDE80840FEF759BE00BF80
:102A600000640240C00E00200000000000000000D2
:102A7000084B09481968826C890901F03D0110B5BD
:102A80008C019C600AB1C06C9047BDE81040FEF715
:102A90003FBE00BF00640240C00E002000000000E6
:102AA000084B09481968026D090C01F03D0110B589
:102AB0000C049C600AB1406D9047BDE81040FEF7E1
:102AC00027BE00BF00640240C00E002000000000CE
:102AD000084B09481968826D890D01F03D0110B558
:102AE0008C059C600AB1C06D9047BDE81040FEF7B0
:102AF0000FBE00BF00640240C00E002000000000B6
:102B000008B5074B07485968026E01F03D01D960CE
:102B10000AB1406E9047BDE80840FEF7F9BD00BF1E
:102B200000640240C00E0020000000000000000011
:102B3000084B09485968826E890901F03D0110B5BA
:102B40008C01DC600AB1C06E9047BDE81040FEF712
:102B5000DFBD00BF00640240C00E00200000000086
:102B6000084B09485968026F090C01F03D0110B586
:102B70000C04DC600AB1406F9047BDE81040FEF7DE
:102B8000C7BD00BF00640240C00E0020000000006E
:102B9000084B09485968826F890D01F03D0110B555
:102BA0008C05DC600AB1C06F9047BDE81040FEF7AD
:102BB000AFBD00BF00640240C00E00200000000056
:102BC0000E490F4A0F48002310B40B600E4C1946F3
:102BD00001E052F80C0C016044F833100133102B63
:102BE00002F10C02F5D10949094A5DF8044B4FF096
:102BF000FF338B60CB609360D3607047400F002041
:102C00000C84000810600240C00E002000600240EA
:102C1000006402400000000000000000000000000E
:102C2000F8B51F4F467A3D68012404FA06FE1EEAF5
:102C3000050F31D11B4C4EEA050504EBC60E15F00D
:102C4000FF0F3D6044F83620CEF8043004D0164C17
:102C5000236B43F40013236315F47F4F16D10568EB
:102C60002B6823F01F032B602B6813F00104FBD1AA
:102C7000077A46683D23BB40212733602C606F6193
:102C800062B1807AFFF754FD2046F8BD064C236BF5
:102C900043F480032363E2E72046F8BD1046F8BD05
:102CA000400F0020C00E002000380240000000004D
:102CB00008B5202383F31188FEF752F9002383F32C
:102CC0001188BDE80840FEF723BD00BF00000000EA
:102CD000054B44F29F11002007225960986008219B
:102CE0000B201A60FFF744BD10E000E00000000078
:102CF0000148FEF7D5BF00BF440F002000000000D0
:102D0000084A08B5516913680B4003F00103536189
:102D100023B10548436800215B689847BDE8084037
:102D2000FEF7F6BC003C0140440F0020000000000C
:102D3000084A08B5516913680B4003F00203536158
:102D400023B1054843680121DB689847BDE8084086
:102D5000FEF7DEBC003C0140440F002000000000F4
:102D6000084A08B5516913680B4003F00403536126
:102D700023B10548436802215B699847BDE80840D4
:102D8000FEF7C6BC003C0140440F002000000000DC
:102D9000084A08B5516913680B4003F008035361F2
:102DA00023B1054843680321DB699847BDE8084023
:102DB000FEF7AEBC003C0140440F002000000000C4
:102DC000084A08B5516913680B4003F010035361BA
:102DD00023B10548436804215B6A9847BDE8084071
:102DE000FEF796BC003C0140440F002000000000AC
:102DF000194B10B55C691A68144004F478725A6172
:102E0000A30622D460061AD4210612D4E2050AD4FD
:102E1000A30504D5114843680921DB6C9847BDE838
:102E20001040FEF775BC0D48436808215B6C98475D
:102E3000EEE70A4843680721DB6B9847E6E7074857
:102E4000436806215B6B9847DEE704484368052129
:102E5000DB6A9847D6E700BF003C0140440F0020E2
:102E60001D4B10B55C691A68144004F47C425A6129
:102E700062052AD4230522D4E0041AD4A10412D472
:102E800062040AD4230404D5144843680F21DB6F7D
:102E90009847BDE81040FEF73BBC104843680E2140
:102EA0005B6F9847EEE70D4843680D21DB6E98474E
:102EB000E6E70A4843680C215B6E9847DEE707485F
:102EC00043680B21DB6D9847D6E7044843680A2125
:102ED0005B6D9847CEE700BF003C0140440F0020E7
:102EE000084A08B55369136803F4803353612BB162
:102EF000054843681021D3F884309847BDE808405E
:102F0000FEF706BC003C0140440F0020000000001A
:102F1000084A08B55369136803F4003353612BB1B1
:102F2000054843681121D3F88C309847BDE8084024
:102F3000FEF7EEBB003C0140440F00200000000003
:102F4000094A08B5516913680B4003F480235361A3
:102F50002BB1064843681221D3F894309847BDE856
:102F60000840FEF7D5BB00BF003C0140440F0020E5
:102F7000094A08B5516913680B4003F48013536183
:102F80002BB1064843681421D3F8A4309847BDE814
:102F90000840FEF7BDBB00BF003C0140440F0020CD
:102FA000094A08B5516913680B4003F400135361D3
:102FB0002BB1064843681521D3F8AC309847BDE8DB
:102FC0000840FEF7A5BB00BF003C0140440F0020B5
:102FD000094A08B5516913680B4003F48003536133
:102FE0002BB1064843681621D3F8B4309847BDE8A2
:102FF0000840FEF78DBB00BF003C0140440F00209D
:10300000F0B4654D654C2F6B6549664A664B40F2DE
:10301000FF1637432F632F6D3E432E65456865606D
:103020008568A560C568E5600569656145692562D3
:103030008569656205682560046A4C60446A8C6035
:10304000846ACC60C46A4C61046B0C62446B4C6251
:10305000C4690C60C16B5160016C9160416CD160BE
:10306000816C5161C16C1162016D5162816B1160A3
:10307000826D5A60C26D9A60026EDA60426E5A6169
:10308000826E1A62C26E5A62426D1A60426FC3F853
:103090000424826FC3F80824C26FC3F80C24D0F84C
:1030A0008020C3F81424D0F88420C3F82024D0F85A
:1030B0008820C3F82424026FC3F80024D0F890209D
:1030C000C3F80428D0F89420C3F80828D0F8982032
:1030D000C3F80C28D0F89C20C3F81428D0F8A020FE
:1030E000C3F82028D0F8A420C3F82428D0F88C20D6
:1030F000C3F8002803F54063D0F8AC205A60D0F83C
:10310000B0209A60D0F8B420DA60D0F8B8205A61C4
:10311000D0F8BC201A62D0F8C0205A62D0F8A8209B
:103120001A60D0F8C820C3F80424D0F8CC20C3F823
:103130000824D0F8D020C3F80C24D0F8D420C3F849
:103140001424D0F8D820C3F82024D0F8DC20C3F809
:103150002424D0F8C420C3F80024D0F8E420C3F815
:103160000428D0F8E820C3F80828D0F8EC20C3F8E9
:103170000C28D0F8F020C3F81428D0F8F420C3F8B5
:103180002028D0F8F820C3F82428D0F8E020C3F88D
:103190000028F0BC704700BF003802400000024029
:1031A0000004024000080240000C02400000000041
:1031B0002DE9F04FC2F3411C02F0030EC2F3800967
:1031C000C2F3C1080027C2F3C3124FF00F0B4FF038
:1031D000010A0FE0046A24EA03031D43056249085B
:1031E00039D04FEA49094FEA88084FEA8C0C4FEA78
:1031F0008E0E0137CB07F2D543680AFA07F423EAAB
:10320000040343EA0903436003257C00836805FA4D
:1032100004F4E443234043EA08038360C56807F0ED
:103220000703254045EA0C059B00BEF1020FC5606F
:1032300002FA03F50BFA03F30FD00668344044EAB0
:103240000E04072F0460C5D9446A24EA03031D4312
:1032500049084562C5D1BDE8F08F072F0AD8066A34
:1032600026EA03031D43056203681C4044F0020480
:103270000460B4E7466A26EA03031D434562F3E7A8
:103280003A483B4A70B5446BA369656945EA034314
:1032900023F07F4393424CD01ED8073A93423CD050
:1032A0000132934210D16268C36A22F400721B6833
:1032B00062601A6842F001021A60626842F4805249
:1032C00062605B68012B4BD915F00A0F18BFA36928
:1032D000BDE87040FEF71CBA264A934212D0023273
:1032E0009342F1D1C36A1B685E683EB32368028CC7
:1032F00043F4A06342F0010202842360BDE8704001
:10330000FEF706BA6368026B23F400731268636009
:10331000136843F001031360D6E7038C1A0A0BD03D
:1033200003F0010343F0F00302F0060213432361AC
:10333000CAE7038CC3F347032361C5E7636823F43B
:1033400000736360236843F400732360202383F3D6
:1033500011881C303146FEF7ABF886F31188B3E7CD
:10336000236823F480632360AEE700BF4C0F002086
:1033700008000300820007000000000000000000B9
:103380003348F8B5446B076B66693A68B1B201F42B
:103390005F43DB436361136823F01F03136013680B
:1033A000DB07FCD43A7AC56A7F683D2393402A68DC
:1033B0003B60136823F01F031360136813F00103CD
:1033C000FBD12F7A6D683D22BA40CF052A6048BFF5
:1033D00001238D05836044BF43F0020383604A05E7
:1033E0000AD5626822F400726260226843F0040326
:1033F00042F40072226083600F0544BF43F008036B
:1034000083604D0444BF43F020038360CC0413D594
:1034100043F010033104836016D4202383F3118812
:103420006FF001010B48FEF743F8002383F3118886
:10343000BDE8F840FEF76CB9320405D4002BECD19E
:10344000BDE8F840FEF764B943F040038360E4E769
:103450004C0F0020680F002000000000000000005A
:1034600010B5074C2046FEF72BFC064B064A62635C
:10347000002103F14802E161E362226310BD00BF55
:103480004C0F0020008400080054004000000000A1
:103490002DE9F04F7C4B7D499A69D0F850A091619D
:1034A00083B08346202383F3118800F160030193E6
:1034B0009BF80030012B06D0DBF85C3063B9DAF8FA
:1034C0001430DE0608D4DAF81830019843F01003FF
:1034D000CAF81830FDF7DCFF002383F311889E46FD
:1034E000DAF8143013F0100350D0DBF850301A6AB9
:1034F00002F4F011B1F5802F1ED0B1F5402FEFD1BD
:1035000002F00F010BEB8101C2F30A12C9680C6AC9
:10351000002AE5D0002103F580500B4601E09A42D5
:10352000DED09D0708BF0168072B03F10103F6D821
:103530002170090A0134F2E702F00F060BEB860650
:10354000C2F30A12F16889694C680D6888682D1BFE
:103550008AB3002103F580540B469F0708BF2168FA
:103560009D4203F1010302D90170090A01309A4218
:10357000F3D1F3689B6998685C68104422449860B2
:103580005A60DAF8143013F01003AED1DBF85C2087
:10359000012101FA0EF1114200910ED10EF1010E3E
:1035A000DBF854309B685FFA8EFE9E4598D9202345
:1035B00083F311887CE70B46DFE7202282F3118832
:1035C000DAF80810DBF85C20009821F0010122EA0B
:1035D0000002CAF80810CBF85C2083F311880BEBCB
:1035E0008E03DB685F697D68D7F800C0AC4547D9BA
:1035F000DBF85000B3F8109000EB4E18C5EB0C044C
:10360000D8F818394C4528BF4C469BB2B4EB830F11
:103610000EF1010E1FD8BE6800EB0E303368036058
:10362000042C07D923463246043B52F8041F01609C
:10363000042BF9D8254426446545BE607D6021D21F
:10364000C5EB0C04D8F818394C459BB228BF4C4642
:10365000B4EB830FE2D90022202383F31188DAF838
:10366000083043F00103CAF808302AB9DAF83438D0
:10367000009A1A43CAF83428002383F311888FE78D
:103680000EF1010E0122E7E7400C0020D084000873
:1036900010B5064C2046FEF75BFD4FF0A043044AF0
:1036A0002365002362652366636610BD880F0020D2
:1036B000C0840008000000000000000000000000BE
:1036C0000378012B00D07047F0B53F4B066D984250
:1036D00083B0054618BF344650D00023C0214FF4B4
:1036E0003412EB652020C6F8003E3160B263FDF76E
:1036F00067FC012323612369DB07FCD41220FDF75B
:103700005FFC2369002BFCDA6B6D2F6DD3F808E0AA
:1037100000231A46B36019464FF0FF3407EB4213FB
:1037200001327245C3F800194FF00000C3F81019B8
:10373000C3F80849C3F8001BC3F8101BC3F8084BB3
:10374000ECD96B68DB684FF00112C7F81C28C6F88B
:103750001008C6F81408C6F81C0863B11B4BB36107
:103760006B6E4FF0FF327261F3B1B36843F0010347
:10377000B36003B0F0BD164BB361F1E7154B5A6B64
:1037800042F080025A635A69002042F080025A6176
:103790000E2158614320FEF7CBFF0F4A0F4BF2601A
:1037A0002C6DC6F8003898E70D4B009502224FF4B7
:1037B000067105F16800FDF7CBFD6866FDF7A0FC1A
:1037C000FDF77EFDD1E700BF880F0020083C30C028
:1037D000003C30C00038024040140040030020028A
:1037E000913400080000000000000000000000000C
:1037F000F8B5056D202307462B612B6913F02004D3
:10380000FBD11220FDF7DCFBD7F854E0C5F83448B3
:103810004FF00112DEF80860C5F81C2823464FF06F
:1038200000604FF0FF3105EB43120133B342C2F8A1
:103830000009C2F8000BC2F80819C2F8081BF2D937
:10384000DEF80030BB65DEF800303A6D6B621023A5
:103850001361136913F01004FBD11220FDF7B0FBC4
:10386000D5F80038104A114823F4FE63C5F8003833
:10387000AB6943F4402343F010030921AB61C5F861
:103880001018C5F81418F860C5F8104BC5F8002BCF
:10389000C5F81049C5F80029BB6D03F1100243F4C7
:1038A0008013BA65AB62F8BD40800010E084000868
:1038B000026D90F84E10D2F8003823F4FE6343EA0C
:1038C0000113C2F80038704700000000000000003B
:1038D0002DE9F8430FFA81F800EB88070D46FB68E5
:1038E0001A6802F00302022A5ED0032A5ED04C4E10
:1038F0004C49012A18BF0E46046D99696A0104EB10
:10390000020E4FF0000CCEF810CB002973D0B3F8A4
:1039100012E005F1580149014EEA060E44F801E0B3
:1039200005F1100CD4F81C184FF0010E0EFA0CFE25
:103930004EEA0101C4F81C18224459694FF0000EE8
:10394000C2F810E9002933D0998B1A8A01294FEA6D
:103950009203826D88BF4B4305F13F0103EB020EDA
:1039600004EB810142EA0343AA0142F02002C0F8BD
:1039700058E04B60226123699A06FCD41220FDF7BF
:103980001FFBFB681A8A05F1480342EA85525B0176
:103990003243E2500121D4F81C3801FA05F51D43E9
:1039A000C4F81C58BDE8F8831F4EA5E71F4EA3E7D7
:1039B00005F13F0204EB8202AB011D49516043F067
:1039C0002003236123699B06FCD404EB48181220D2
:1039D000FDF7F6FAD8F8003923F40043C8F80039A7
:1039E000D4F81C38012202FA05F523EA0503C4F8CD
:1039F0001C38BDE8F88304EB481105F11009D1F833
:103A000000CB2CF4004CC1F800CBD4F81C184FF0BC
:103A1000010E0EFA09FE21EA0E01C4F81C188BE70C
:103A200000800410008000100080081000800C103E
:103A30000004000200000000000000000000000080
:103A40005831036D49015B5813F4004004D013F45E
:103A5000001F14BF01200220704700BF00000000BB
:103A60004831036D49015B5813F4004004D013F44E
:103A7000001F14BF01200220704700BF000000009B
:103A800000EB8101CB681B6A19685B6853601160A9
:103A9000704700BF000000000000000000000000B0
:103AA00000EB810330B4DC68A2691368D36009B904
:103AB000402B22D85A1E638A006D24681A44B2FB38
:103AC000F3F202FB03F3033323F0030343EAC2439D
:103AD00000EB411504F0030243F0C043012AC5F88E
:103AE000103B0ED009B200EB411130BCD1F8003BC5
:103AF00043F00443C1F8003B7047402313603F226A
:103B0000D9E709B2D0F8083800EB411213F4807FEE
:103B1000D2F8003B14BF43F0805343F00053C2F887
:103B2000003BE0E700000000000000000000000093
:103B30002DE9F041244D2F6D07EB40130646D3F8D5
:103B4000084BC3F8084B200703D5D7F814381907DA
:103B500031D4E2071BD5D7F81438DB0717D505EBAE
:103B60008603DA689169508A4C68B4FBF0F300FB75
:103B7000134474B16989D2680123B34021EA030375
:103B80006B8122B131461048BDE8F0411047BDE8D5
:103B9000F0810868CB689842ECD21B1A81E81800C3
:103BA000202383F3118808483146FFF779FF84F317
:103BB0001188BDE8F08105EB86033146DB682846B5
:103BC0005B689847C5E700BF880F00200000000031
:103BD00000EB8103F0B4DC6865692B68EB60F3B936
:103BE000006D00EB41134FF40022C3F81029236845
:103BF00003F00303012B26D00BB200EB4313012289
:103C0000D3F8004944F00444C3F80049D0F83438EC
:103C100002FA01F11943C0F83418F0BC704719B327
:103C20005D1E43F00052006D268A00EB41177319A8
:103C3000B3FBF6F342EAC343C7F81039236803F035
:103C40000303012BD8D1D0F8083813F4807F0BB2CE
:103C500000EB4314D4F8002914BF42F0805242F024
:103C60000052C4F80029C8E7402BD9D940232B6063
:103C7000014A3F25D7E700BF4000002000000000B8
:103C80002DE9F041294E356D05EB40130746D3F879
:103C90000849C3F80849E10703D5D5F81038DA0711
:103CA00009D4230605D50121D5F83438B940194285
:103CB00018D1BDE8F08106EB8003D9684B6918681C
:103CC000DA68904223D33289D1F808800123BB40BF
:103CD00022EA03033381B8F1000FE2D039463046BF
:103CE000C047DEE7202383F31188D5F83428F36D2D
:103CF0000F4822EA01020B43C5F834280021F3657E
:103D0000FDF7D6FB002383F31188BDE8F081121A7A
:103D10004FF0000883E80401202383F3118839461B
:103D20003046FFF755FF88F31188BAE7880F002067
:103D3000E80F00200000000000000000000000006C
:103D40002DE9F047954E376D7D69BB691D4015F42F
:103D500080597D6140F0C880002D55DB2B054DD486
:103D6000AC040CD5D7F8083813F0060FFB6823F421
:103D700070530CBF43F4105343F4A053FB60280767
:103D800004D57368DB680BB184489847EA024FD4C6
:103D9000AA0200F1B980EB0621D46E03D7F81848C7
:103DA0000BD5E00700F1F580A10700F1EE80620776
:103DB00000F1E780230700F1D1802F030BD5E60344
:103DC00000F1DB80A50300F1D480600300F1CD8019
:103DD000210300F19280BDE8F047FDF799BC202354
:103DE00083F31188BB696E4823F01003BB61002187
:103DF000FDF75EFB002383F31188CEE700236748BD
:103E0000F365FEF735FAABE7D7F8003E9A0705D021
:103E1000D7F8003E23F00303C7F8003ED7F8043874
:103E20005E4843F00103C7F80438FEF729FA95E726
:103E3000D6F85080002407E0736D584A9B6801341F
:103E4000E4B29C42A14649D808EB4412D2F80039AA
:103E500003F44023B3F5802FEED1D2F80039002BC4
:103E6000EADAD2F8003943F09043C2F80039D2F8C8
:103E70000039002BFBDB4FEA8919326D49F0200332
:103E8000136113699906FCD41220FDF799F806EB2B
:103E900084034FF00109DA683389926809FA04F95A
:103EA0006FEA090A0AEA0303338112B121463B484B
:103EB0009047202383F31188D8F83428F36D3848CD
:103EC0000AEA020243EA0903C8F834280021F3652C
:103ED000FDF7EEFA002383F31188ADE7AB027FF51F
:103EE0005AAFD2F8508011E000233046F365FEF758
:103EF0009FF9BDE8F047FDF70BBC0320FFF718FE64
:103F0000BDE8F047FDF704BCD6F8508000244FF020
:103F1000010906E0736D01349B68E4B29C423FF6F0
:103F20003AAF08EB4412D2F8003B03F44023B3F558
:103F3000802FEFD1D2F8003B002BEBDA06EB8402A6
:103F40007389D2681548D26809FA04F123EA01039B
:103F500073812146002ADDD09047DBE70320FFF77D
:103F60008FFE2F037FF537AF29E70220FFF7E0FD33
:103F70002EE70120FFF7DCFD27E70020FFF7D8FD43
:103F800020E70220FFF77CFE14E70120FFF778FE10
:103F90000DE70020FFF774FE06E700BF880F002042
:103FA000E80F0020000000000000000000000000FA
:103FB000036D03EB4111D1F8003B43F40013C1F84A
:103FC000003B7047000000000000000000000000FF
:103FD000036D03EB4111D1F8003943F40013C1F82C
:103FE00000397047000000000000000000000000E1
:103FF000036D03EB4111D1F8003B23F40013C1F82A
:10400000003B7047000000000000000000000000BE
:10401000036D03EB4111D1F8003923F40013C1F80B
:1040200000397047000000000000000000000000A0
:1040300011F00C0F00D170470148FCF789BF00BF99
:1040400010850008000000000000000000000000D3
:1040500011F00C0F38B5044634D1606A0268136859
:1040600023F01F0313601368D907FCD4057A216A73
:1040700040680A683D23AB400360136823F01F03C8
:1040800013601368DB07FCD46368087A1A68496810
:104090003D2383400B6092B1042323702046904758
:1040A0002378042B0BD0202383F31188002104F103
:1040B0000800FDF7FDF9002383F3118838BD0223C2
:1040C0002370F0E70148FCF743FFC6E710850008BE
:1040D00010B50A4C0A4B4FF6FF7220461A80FEF7C5
:1040E00017F8084B08480949094AE06103F1240020
:1040F00023626062A162E26210BD00BF2412002050
:1041000020120020608400080030014016000106E3
:104110004600010600000000000000000000000052
:104120000378012B10B504461DD0C3696268A06AEC
:104130005289E16A20F4F04021F4F04112F4006F5A
:104140001CBF40F4205041F42051A062E16242F4CF
:1041500041720020072118601A6059601A6842F005
:1041600040021A6010BD0F4B984209D0216A626A62
:10417000E3690868116803F10C0282608A60D5E780
:104180000346094A006A0A21FEF74AFD2346074A08
:10419000606A0A21FEF744FD054A536C43F48053DC
:1041A0005364E3E724120020514000083140000826
:1041B0000038024000000000000000000000000085
:1041C00042681189526801238B409BB25383704728
:1041D00042681189526801238B409BB21383704758
:1041E000F0B4046A476A866AC56A24683868E3607E
:1041F00046F4806645F4806561602660C260416077
:104200000560236843F001032360036843F0010362
:104210000360F0BC704700BF000000000000000019
:1042200070B4436A046AC56A24681B68806A094ED0
:10423000E66045F4806561602060DA6059601D6069
:10424000226842F0010222601A6842F001021A60FC
:1042500070BC7047541200200000000000000000F5
:10426000FEF7C6BA000000000000000000000000D9
:10427000704700BF000000000000000000000000C8
:10428000F0B400F10B073C460D46B1FBF2F602FB21
:10429000161101F13003392BC8BF01F13703DBB22E
:1042A00004F8013DB5FBF2F53146002DEDD13A1B86
:1042B000024401E014F8013F00F8013B9042F9D1BB
:1042C000F0BC70470000000000000000000000008B
:1042D0002DE9F04F2DED028B91B0002306468B4661
:1042E000924600939BF800100BF1010379B1252948
:1042F00013D0009C32689B4692683046013400948B
:1043000090479BF800100BF101030029EFD10098B2
:1043100011B0BDEC028BBDE8F08F9BF801202D2A77
:1043200003BF9BF802200BF1020301210021302A78
:1043300008BF5A78019106BF013330272027591C46
:10434000002408E09AF800300AF1040A9BF80020E3
:1043500003EB40040131A2F13003DBB2092B8B46A1
:1043600004EB8400F2D92A2AECD02E2A4FF0000860
:1043700045D002F0DF034C2B50D0A2F14403342B84
:1043800000F2C981DFE813F0B701C701C701C70117
:10439000C701B701C701C701C701C701C701B501FF
:1043A000C701C701C701C701C7010601C701C7018E
:1043B0008D00C701C701C701C701C701C701C701F8
:1043C000C701C701C701A701B701C7010801C7019C
:1043D000C701B701C701C701C701C701C701B501BF
:1043E000C701C701C701DB00C7010601C701C7013B
:1043F0008D009AF800300AF1040A03EB41081BF81B
:10440000012BA2F13003DBB2092B08EB8801F4D9B0
:104410002A2AEED002F0DF034C2BAED19BF800101D
:10442000002900F07881A1F144030BF1010B342B3A
:1044300000F27081DFE813F05F016E016E016E0122
:104440006E015F016E016E016E016E016E015D0114
:104450006E016E016E016E016E01AE006E016E01A5
:1044600035006E016E016E016E016E016E016E010E
:104470006E016E016E014F015F016E01B0006E01B1
:104480006E015F016E016E016E016E016E015D01D4
:104490006E016E016E0183006E01AE006E016E0151
:1044A000350010220AADDAF800102846FFF7E8FEC2
:1044B000401B0AF1040A00F1FF38019B241A24EA88
:1044C000E474002B62D1C4F10009B9F1000F00F0CF
:1044D0002B8129782D2900F03A81336839469B6871
:1044E0003046984719F10109F7D1009BB8F1000F48
:1044F00023440093FFF6F6AE4C46C146336815F8E8
:10450000011B9B6809F1FF3930469847B9F1FF3F1D
:10451000F4D1009B0133B8F1000FA8BF43440093CE
:10452000002C3FF4DFAE2546336839469B683046A1
:104530009847013DF8D1009B23440093D2E6DAF876
:1045400000509B4B002D08BF1D460AF1040A2B7832
:10455000B8F1000F00F0EE80002B00F0F08008F1C1
:10456000FF38284602E0B8F1FF3F05D010F8013FC0
:1045700008F1FF38002BF6D1401B019B241A00F1F3
:10458000FF38202724EAE474002B9CD0B8F1000FF8
:10459000B3DAC5E70A2285E70AF1070A2AF0070A13
:1045A000DAE90001FCF72CFB08EE100AB5EEC08A30
:1045B000F1EE10FA0AF1080A00F1E8800AAD2A4685
:1045C00018EE100A0492FBF7FFFF08F1FF38B8F16C
:1045D000080FCDE90201049A00F2C780754B53F829
:1045E00028804046FBF7CEFF734B049AA3FB0838A4
:1045F000CDE906014FEAD80309939846FDEEC87A43
:1046000002F10B0317EE901A17EE90EACDED047A43
:10461000059318460892684BA3FB0E23DB0803EBB7
:104620008309654A9C46AEEB49033033A2FB012166
:10463000DBB2C90800F8013DE646ECD10599089ABD
:10464000C0EB0109914401E010F8013F02F8013B81
:104650004A45F9D14A462E2302F80C3B04980492AD
:10466000FBF7A0FF02460B46DDE90201FBF74CFE1B
:10467000DDE90623FBF7FCFFFCF79AFA0999049A97
:10468000002908BF804609F1010E4B4BA3FB001324
:10469000DB0803EB830C1946A0EB4C034648303390
:1046A000A0FB0808DBB25FEAD80802F8013D084623
:1046B000EBD10499891A481C8144704601E012F834
:1046C000013F00F8013B8145F9D10EEB0100401B91
:1046D00000F1FF38F1E610ADDAF8003005F8183DCA
:1046E0000DF12900401B0AF1040A00F1FF382027D0
:1046F000E3E60822D6E6DAF8001000290AF1040AF7
:104700003CDB0AAD28460A22FFF7BAFD401B00F148
:10471000FF38D2E60A4610AD0DF1290005F8182D34
:10472000401B00F1FF38C8E6B8F1000FFFF6DAAD24
:104730004C46E2E647F6FE78002B7FF412AF019B71
:1047400024EAE4745BBB4FF0FF382027BBE6302F30
:104750007FF4C3AE336830469B689847009B0133B3
:104760000135009308F1FF38B7E69FED0F7BDFF8C6
:104770004C80CDF824808DED067B3FE72D23494208
:104780008DF828300DF129000AADBCE72D23B1EEDC
:10479000488A8DF828300DF129020AAD10E720274C
:1047A000BEE600BFAFF300800000000065CDCD4144
:1047B0002086000830860008CDCCCCCC00E1F50581
:1047C0000EB400B582B003AA52F8041B0192FFF7A1
:1047D0007FFD02B05DF804EB03B0704700000000FD
:1047E00008B5094B094A9B699A61FF2000F0C8FD92
:1047F00041F28830FCF714FE002000F0C1FD41F2C8
:104800008830FCF70DFEF0E7400C002060860008C1
:1048100000B583B0FCF7ACFFFCF742FB0121084672
:1048200000F0A6FF0121022000F0A2FF01210420D8
:1048300000F09EFF00F09CF900F0C2FC00F0E0FBED
:1048400000F0AEF900F03CF9002300930648074B56
:1048500040224FF4B361FCF7ABFD00F011FB4FF4C5
:104860007A70FCF7DDFDF8E758120020E1470008F8
:1048700070B52023064683F31188144DFFF7A8FC7A
:104880002B78ABB1142400BF013CFCD13046FFF7BC
:1048900097FC0F4A0F4B147003215470304631704F
:1048A0000221FFF79DFC2C70002383F3118870BD5B
:1048B000084A09491078537843EA0023C3F30D03EB
:1048C0000B80002383F3118870BD00BFF617002012
:1048D000F4170020F0170020F81700200000000057
:1048E00030B51F4C1F4D85B0204640F29A22202142
:1048F000FEF75EFC204640F29A224021FEF758FC6B
:10490000204640F29A228021FEF752FC19222046CE
:104910001021FEF74DFC1023238313491348FDF7A4
:10492000FFFB0121042000F033FF002341F2670266
:10493000284601A9ADF80430ADF80630ADF80C30CA
:104940008DF80E30029201F043F806211E20FDF78B
:10495000EFFE2846012101F09BF805B030BD00BFF5
:104960000000024000080040708600082412002069
:10497000F8B50A4C2046FFF723FC094B03271A46DB
:1049800020467F26FF2502211E705D702770FFF7ED
:1049900047FC044B01221A70F8BD00BF241200200E
:1049A000F4170020F61700200000000000000000AF
:1049B00008B5FFF7DDFF084B9FED087A1B889FEDD8
:1049C000080AC3F30C0307EE903AF8EEE77A67EEB5
:1049D000877A27EE800A08BDF81700200000B4434C
:1049E000000000390000000000000000000000008E
:1049F000704700BF00000000000000000000000041
:104A0000704700BF00000000000000000000000030
:104A1000022906D0032906D00129064818BF002024
:104A2000704705487047032A9ABF044B03EBC20046
:104A30000020704730880008B08600080088000811
:104A400008B5202383F311880348FDF7B9FA002342
:104A500083F3118808BD00BF0C180020000000007F
:104A6000022938B50C460CD0032909D1202383F341
:104A700011880E48FDF754FA002383F3118838BDDE
:104A800038BD0546202383F31188094A0121FDF72B
:104A900087FB21462846074AFDF782FB0348FDF7BE
:104AA0004FFA002383F3118838BD00BF0C18002093
:104AB00080860008C086000800000000000000009A
:104AC00070B5154E154D164C304640F202524FF45B
:104AD0000061FEF76DFB40F202524FF48051304608
:104AE000FEF766FB2846FDF7CBF90E492846FDF791
:104AF000F7F9226D936B23F40023936343F6982018
:104B0000FCF78EFC20460849FDF732FB226D936BC3
:104B100043F40023936370BD000002400C18002092
:104B2000880F002020880008F086000800000000A0
:104B3000054BD3F884341B681878A0F10400B0FA50
:104B400080F04009704700BF0C18002000000000F2
:104B500008B5054B054A9B699A61FFF751FF642030
:104B6000FCF75EFCF9E700BF400C0020408800081D
:104B700000B583B0FFF73CFF002300934022044BB5
:104B800004484FF4B361FCF713FC03B05DF804FB79
:104B9000514B0008B81C002000000000000000007D
:104BA0002DE9F04FAE4DAF4EAF4CDFF8C882AF4F9E
:104BB000A9B0284603220121FEF7FAFA284603226B
:104BC0000221FEF7F5FA284603220421FEF7F0FA47
:104BD00028469A224FF48071FEF7EAFA28469A2274
:104BE0004FF40071FEF7E4FA28469A224FF48061F0
:104BF000FEF7DEFA30469A224FF40051FEF7D8FA5B
:104C000030469A224FF48041FEF7D2FA9A2230467B
:104C10004FF40041FEF7CCFA2046002500F0F8FDE5
:104C2000012108466562012600F0C2FD20464022AF
:104C300041F2680303A9ADF80E200493ADF80C50BF
:104C4000ADF814508DF8166000F0C2FEE36AADF8BE
:104C50003A60F340602220460EA94FF0040A4FF458
:104C6000807910934FF40073ADF83820ADF84A30D6
:104C7000ADF84890ADF84450ADF84650ADF83CA0C2
:104C800000F016FF0EA9204600F052FF0EA92046A4
:104C900000F08EFF0EA9204600F0D2FF204608212A
:104CA00001F006F82046082101F00AF82046082104
:104CB00001F016F82046082101F01AF84FF47A7135
:104CC0004FF400634FF4806220464FF4005BADF870
:104CD0001E1006A9ADF818300193ADF81A20009205
:104CE000ADF81C50ADF82050ADF82450ADF822B00E
:104CF00001F00EF83146204601F032F831462046E8
:104D000000F0B6FE31464FF4800000F031FD314630
:104D10004FF4E06000F04CFD009A019BDFF858E191
:104D20001F924FF0030C524A209340464FF4003339
:104D300019A9CDF86CE0CDF874C01A922393CDF880
:104D4000889019951C951E95CDF884B024952595CD
:104D50002695279500F0CCFC3146404600F0F8FC43
:104D600015224FF480430AA80A920C93B944DFF845
:104D70000C810B950D9500F07BFB384613A913951C
:104D80008DF850608DF851501595169517958DF842
:104D9000606000F045FB13A9484600F041FB13A9F1
:104DA000404600F03DFB304600F08AFB294638467D
:104DB00000F0CEFB38464FF4001100F0D1FB314635
:104DC000384600F0BDFB3146484600F0B9FB31469D
:104DD000404600F0B5FB334632462946384600F0DF
:104DE0007FFB334632463146484600F079FB334676
:104DF00032464046022100F073FB3246384640F20C
:104E0000074100F0C5FB51461220FDF791FC3146E9
:104E1000384600F045FB3146484600F041FB31463C
:104E2000404600F03DFB3146204600F031FE314661
:104E3000204600F085FF236843F002032360E36A05
:104E40006563E36AA563E36AE563E36A023B23649F
:104E5000236823F00203236029B0BDE8F08F00BF70
:104E60000000024000040240000001400020014018
:104E700008230140706402405422002000220140B7
:104E800010B5FFF755FE00B910BD064B1868FBF7CB
:104E90009BFBBDE8104002460B4603480349FFF761
:104EA0008FBC00BF5C2200200C1800205088000836
:104EB00000F096BA000000000000000000000000B2
:104EC00000B53B4A1378012B87B00FD0022B0AD1D3
:104ED000384B1968481CB1F57A6F18601ADB00204E
:104EE00001211860117007B05DF804FB00F090F824
:104EF000314B324883ED000A142100F039FB1421B4
:104F00002F4800F035FB14212E4800F031FB07B08C
:104F10005DF804FB9FED2C1A05A9F0EE410A04A8E8
:104F2000B5EE000A00F09CF8DDED050A9DED040ADF
:104F300003AA02A901A800F013F903AA02A901A873
:104F4000FFF7B6FF214B9DED017A1A68DDED027A7D
:104F50009DED036A42F002021A60D3ED0B6AF8EE8F
:104F6000666A66EE876AFDEEE66AC3ED0D6A93ED4A
:104F70000B7AB8EE477A27EE277ABDEEC77A83ED33
:104F80000E7AD3ED0B7AF8EE677A67EE867AFDEE4D
:104F9000E77AC3ED0F7ADA6A023A1A641A6822F0E5
:104FA00002021A6000F034F8034B83ED000A9AE71E
:104FB00007080020502200205C2200200020014031
:104FC00000210140002201400000000000000140DB
:104FD00008B5202383F3118840F20741054800F00B
:104FE000E7FAFFF76DFF002383F31188BDE808405F
:104FF000FCF78EBB00200140000000000000000014
:10500000FFF76EBC00000000000000000000000080
:1050100008B5FFF7CDFCF3EE0A7A70EE677A17EE6B
:10502000900AFBF7D1FA9FED081B41EC100B00F042
:10503000A7FF002251EC100B054BFBF719FBFBF708
:10504000DFFD00EE100A08BD00000060DBB649403D
:1050500000001C40000000000000000000000000F4
:1050600030B52DED088B054685B011EE100A9FED89
:105070003AABB0EE408AF0EE608A0C46FBF7A4FA39
:10508000B0EE4A1AF0EE6A1A41EC100B41EC190B23
:1050900000F076FF00F084FEB0EE4A1AF0EE6A1AD5
:1050A00051EC100BB0EE490AF0EE690ACDE90201AD
:1050B00000F066FF00F0D4FEDDE902018DED000B8B
:1050C000FBF79EFD9DED000B07EE900A51EC100BD7
:1050D00027EE88BAFBF794FDB0EE4A1AF0EE6A1A92
:1050E000B0EE490AF0EE690A07EE900A67EEA87A78
:1050F0007BEE677AC5ED007A00F042FF00F0B0FE6B
:10510000B0EE4A1AF0EE6A1A51EC100BB0EE490AF2
:10511000F0EE690ACDE9020100F032FF00F040FE36
:10512000DDE902018DED000BFBF76AFD9DED000B43
:1051300007EE900A51EC100B27EE888AFBF760FD12
:1051400007EE900A67EEA88A38EE288A84ED008A76
:1051500005B0BDEC088B30BD00000000008076403B
:105160009FED137A80ED000AF6EE007A60EE677A22
:1051700060EE870ADFED0F6A37EEA07A77EEE07A0D
:1051800081ED007AC2ED007AD0ED007A67EEA67A62
:10519000C0ED007AD1ED007A67EEA67AC1ED007A13
:1051A000D2ED007A67EEA67AC2ED007A704700BFB2
:1051B0002DB25D3F46B6133F000000000000000026
:1051C0002DE9F0412DED028B614B624EDFF8A4C159
:1051D00000221A605A609A60DA601A619E4698B09E
:1051E000154611463746334621244220C1F3074273
:1051F000C1F307281CF802201CF80880C9B212026B
:105200001CF8011042EA08420A4303F1300112F48B
:10521000000F14BF18801C8002338B424FEA4202F9
:10522000F5D11835782D02D05EF8041FDEE74A4B21
:10523000002103F1640223F8021F9A42FBD1474D7B
:105240009FED478A002407EE904AB8EEE70ADFEDAB
:10525000450A80EE080A00F0FBFE013420EE080A41
:1052600000F05EFEFDEEC07AB4F5807F17EE903A56
:1052700005F8013FE7D14FF4857201213A48FDF767
:1052800097FF01214FF4001000F072FA374800F048
:1052900097F94022AA234FF48061DFF8DCC00B9617
:1052A0004FF0206E002512944FF400660C920D937F
:1052B0004FF4003203230F912C48CDF828C009A9E0
:1052C0004FF40054CDF824E01392159311940E95E9
:1052D000149516951795109600F00AFA01210220F0
:1052E00000F056FA682301A9214802930124ADF881
:1052F0000450ADF80650ADF80C508DF80E5000F08B
:1053000067FB60233A881A48ADF8103004A906926A
:10531000ADF81C50ADF8124000F04AFC08211448CA
:1053200000F0DEFC2146124800F0B2FB21460F4897
:1053300000F00EFA224631460D4800F021FD2146CC
:105340000B4800F0FDFC18B0BDEC028BBDE8F0810D
:10535000602200207422002060230020C723002048
:1053600000007F43E4380E4000040240B860024071
:1053700000040040C82300203C040040000000005E
:10538000F0B5134A134FC0F30743C0F30725D15CB0
:1053900012F805E0104BC4B20902125D41EA0E4E4C
:1053A0004EEA020E00262125422447F8040B03F1A1
:1053B0003001724612F4000F14BF1C801D800233AE
:1053C0008B424FEA4202F5D11836602EEDD1F0BD86
:1053D000C82300206022002074220020000000006A
:1053E00090ED007ADFED0D7A27EE277AF6EE006A6F
:1053F00037EE267A80ED007A91ED007A27EE277A53
:1054000037EE267A81ED007A92ED007A67EE277A00
:1054100077EEA67AC2ED007A704700BF2DB25D3FED
:10542000F0B544680A680E79D1F810E0CD680F4BEA
:1054300024F0407424F48074224342EA062242603D
:1054400087688A684E794EEA050422433B4013433D
:1054500043EA460383600A7DC36A013AD2B223F469
:10546000700343EA0253C362F0BD00BFFDF7FFC003
:1054700070B442680668064D8468C168054B686868
:10548000324322430A43034013436B6070BC7047AE
:1054900000230140E030FCFF00000000000000009D
:1054A000836819B923F001038360704743F0010357
:1054B0008360704700000000000000000000000052
:1054C000054A536818B923F400535360704743F4F6
:1054D00000535360704700BF0023014000000000EC
:1054E000092970B41BD801EB410605690724B440B3
:1054F000B34025EA040423430361836B0232C3F300
:105500000154121BD2B202EB82021F24944023EA00
:10551000040301FA02F21343836370BC7047A1F1E4
:105520000A0606EB4606C5680724B440B34025EAE0
:1055300004042343C360E0E7000000000000000013
:10554000836B013923F4401343EA015181637047AF
:10555000836823F4702319438160704700000000C2
:10556000836823F4401319438160704700000000F2
:1055700082B0002301930190019B283319440191CB
:10558000019B186880B202B0704700BF00000000A5
:10559000C9B201238B4041681AB921EA0303436071
:1055A00070470B434360704700000000000000009C
:1055B0006FEA112101607047000000000000000048
:1055C00002683749002310B422F0010221248842E6
:1055D0000260036043608360C360036144614DD037
:1055E000304B984235D0304B984239D02F4B9842AF
:1055F0003DD02F4B984247D02E4B984248D02E4B4F
:1056000098421DD02D4B98421ED02D4B984243D02E
:105610002C4B98421DD02C4B984221D02B4B9842BA
:1056200025D02B4B98422FD02A4B984230D02A4B72
:10563000984205D0294B984206D05DF8044B70473C
:10564000274A43F8942CF8E74FF03D5243F8AC2C2E
:10565000F3E74FF4746243F8202C5DF8044B704775
:105660004FF4741243F8382C5DF8044B70474FF038
:10567000746243F8502C5DF8044B7047194B5DF889
:10568000044B3D229A607047174A43F8642CD4E7D4
:10569000164A43F87C2CD0E73D2243F8082CCCE78F
:1056A00010600240286002404060024058600240A2
:1056B0007060024088600240A0600240B860024012
:1056C0001064024028640240406402405864024072
:1056D0007064024088640240A0640240B8640240E2
:1056E00000003D20006002403D000020400F0020EF
:1056F00001F11802F0B48CCACD680E684C692E43D3
:10570000264316431E434A6A8B6A4D6B8C6B3E439D
:1057100016431E430B4A0368CF6A35432C431A4095
:10572000224302600B6B42690D694C6889683B43F8
:1057300022F007021343436145608460C160F0BCFE
:10574000704700BF3F801CF0000000000000000018
:10575000036819B923F001030360704743F00103A4
:10576000036070470000000000000000000000001F
:1057700029B9054A136B23EA000010637047024BF6
:105780001A6B104318637047003802400000000095
:1057900029B9054A136C23EA000010647047024BD4
:1057A0001A6C104318647047003802400000000073
:1057B00029B9054A536C23EA000050647047024B34
:1057C0005A6C1043586470470038024000000000D3
:1057D00029B9054A136A23EA000010627047024B98
:1057E0001A6A104318627047003802400000000037
:1057F00029B9054A536A23EA000050627047024BF8
:105800005A6A104358627047003802400000000096
:1058100008B5604B984235D0B0F1804F3CD05E4B1C
:10582000984243D05D4B98424AD05D4B984251D04C
:105830005C4B984258D05C4B98425FD05B4B98428F
:1058400066D05B4B98426DD05A4B984276D05A4BFB
:1058500098427FD0594B984200F08880584B98422C
:1058600000F08E80574B984200D008BD01214FF4C4
:105870008070FFF7ADFF00214FF48070BDE8084055
:10588000FFF7A6BF01210846FFF7B2FF0021012064
:10589000BDE80840FFF7ACBF01210846FFF798FFBD
:1058A00000210120BDE80840FFF792BF012102203E
:1058B000FFF78EFF00210220BDE80840FFF788BFF8
:1058C00001210420FFF784FF00210420BDE80840E7
:1058D000FFF77EBF01210820FFF77AFF0021082093
:1058E000BDE80840FFF774BF01211020FFF770FFEB
:1058F00000211020BDE80840FFF76ABF01212020E9
:10590000FFF766FF00212020BDE80840FFF760BFD9
:1059100001210220FFF76CFF00210220BDE80840B2
:10592000FFF766BF01214FF48030FFF761FF0021D0
:105930004FF48030BDE80840FFF75ABF01214FF413
:105940000030FFF755FF00214FF40030BDE808405C
:10595000FFF74EBF01214FF48020FFF749FF0021E0
:105960004FF48020BDE80840FFF742BF01214020EE
:10597000FFF72EFF00214020BDE80840FFF728BFB9
:1059800001218020FFF724FF00218020BDE808408E
:10599000FFF71EBF00000140000400400008004067
:1059A000000C0040001000400014004000040140C2
:1059B0000040014000440140004801400018004000
:1059C000001C00400020004000000000000000001B
:1059D000224A036890429BB212D002F58062904244
:1059E0000ED0B0F1804F0BD0A2F58032904207D09C
:1059F00002F58062904203D002F58062904203D1AA
:105A00004A8823F070031343154A90421ED002F5D2
:105A1000806290421AD00A8970B423F440730F4C0C
:105A20004E680D889BB21343A0420360C662856234
:105A300006D00C4B984203D00123436170BC7047E1
:105A40008B7A03630123436170BC704703604A682B
:105A50000B88C262836201234361704700000140EA
:105A600000100040000401400000000000000000A1
:105A700029B902684FF67F731340036070470368CB
:105A800043F0800303607047000000000000000046
:105A900029B902684FF6FE7313400360704703682C
:105AA00043F00103036070470000000000000000A5
:105AB000026A4FF6FE7313400362F0B54A88056A26
:105AC0008B894468154FD0F818E04FF6FD762E40CC
:105AD000134333434FF68C750E880EEA0505B84222
